:100000000C945E000C940A040C94E3030C94860098
:100010000C9486000C9486000C9486000C94860048
:100020000C9486000C9486000C9486000C94860038
:100030000C9486000C9486000C9486000C94860028
:100040000C9499030C9486000C9457040C9431047E
:100050000C9486000C9486000C9486000C94860008
:100060000C9486000C9486000000000024002700F9
:100070002A0000000008000201000003040700003D
:10008000000000000000010204081020408001026E
:1000900004081020010204081020000000002500C0
:1000A00028002B00040404040404040402020202D5
:1000B00002020303030303038904920611241FBEF3
:1000C000CFEFD8E0DEBFCDBF11E0A0E0B1E0EEE2BF
:1000D000F0E102C005900D92A032B107D9F721E0FE
:1000E000A0E2B1E001C01D92A23EB207E1F710E02C
:1000F000CDE5D0E004C02197FE010E94D806CC35A2
:10010000D107C9F70E941E050C940A080C94000040
:1001100090E0FC01EE58FF4F2491FC01EA57FF4F9D
:100120003491FC01EC55FF4FE491EE23B9F022230A
:1001300039F02330F1F098F4213009F1223019F12F
:10014000F0E0EE0FFF1FE656FF4FA591B4918FB779
:10015000F894EC9130953E233C938FBF089527305F
:10016000A9F02830C9F0243059F7809180008F7DA4
:1001700003C0809180008F7780938000E1CF84B5A9
:100180008F7784BDDDCF84B58F7DFBCF8091B000AC
:100190008F778093B000D4CF8091B0008F7DF9CF5E
:1001A000CF93DF9390E0FC01EA57FF4F24918C55E9
:1001B0009F4FFC0184918823D1F090E0880F991F14
:1001C000FC01E859FF4FA591B491FC01E656FF4FA1
:1001D000C591D49161110EC09FB7F8948C91E22F14
:1001E000E0958E238C932881E223E8839FBFDF91E3
:1001F000CF9108958FB7F894EC91E22BEC938FBFD9
:10020000F6CF3FB7F8948091270190912801A091F3
:100210002901B0912A0126B5A89B05C02F3F19F0EE
:100220000196A11DB11D3FBFBA2FA92F982F882776
:10023000BC01CD01620F711D811D911D42E0660F51
:10024000771F881F991F4A95D1F708950F931F9321
:10025000CF93DF93CDB7DEB729970FB6F894DEBF03
:100260000FBECDBF0E9401010091D7011091D801AE
:100270002091D9013091DA01601771078207930745
:1002800040F46093D7017093D8018093D901909383
:10029000DA010091D7011091D8012091D901309154
:1002A000DA01601B710B820B930B6C32714081057C
:1002B0009105C0F2F8948091CC019091CD019A8380
:1002C0008983E091D101F091D201DF011196808103
:1002D00089879091C801E091DB01F091DC01809168
:1002E000DD01992309F445C09081982B988790816E
:1002F000809589238F838F818C8388E08B835885B9
:100300006F8149853B812C8189819A81508347FD8A
:10031000252F3A952083262F39F0441F00C0000076
:100320006083000000C0F2CF38E04D916083000090
:10033000019761F7F093DC01E093DB0149873B8390
:100340002C839A83898378940E9401016093D7015A
:100350007093D8018093D9019093DA0129960FB652
:10036000F894DEBF0FBECDBFDF91CF911F910F91EB
:1003700008959081982B98879081809589238F8309
:100380008F818E8388E08D8358856F8149853D817B
:100390002E8189819A81508347FD252F00C000C09E
:1003A000208300C000C000C000C000C06083000007
:1003B000262F3A9541F0441F000000C000C000C045
:1003C00000C000C0E8CF38E04D9100C0608300C09D
:1003D000019709F7F093DC01E093DB0149873D8346
:1003E0002E83AFCF809120019091210101969093AF
:1003F00021018093200108950895AF92BF92CF927A
:10040000DF92EF92FF920F931F93CF93DF936C01D4
:100410007B018B01040F151FEB015E01AE18BF08B5
:10042000C017D10759F06991D601ED91FC91019067
:10043000F081E02DC6010995892B79F7C501DF917F
:10044000CF911F910F91FF90EF90DF90CF90BF90D1
:10045000AF900895FC01538D448D252F30E0842FFB
:1004600090E0821B930B541710F0CF9608950197DC
:100470000895FC01918D828D981761F0A28DAE0FC9
:10048000BF2FB11D5D968C91928D9F5F9F73928F50
:1004900090E008958FEF9FEF0895FC01918D828D7C
:1004A000981731F0828DE80FF11D858D90E0089549
:1004B0008FEF9FEF0895FC01918D228D892F90E0A1
:1004C000805C9F4F821B91098F73992708958BE25F
:1004D00091E00E945B0221E0892B09F420E0822F49
:1004E000089580E090E0892B29F00E946702811135
:1004F0000C9400000895FC01A48DA80FB92FB11D24
:10050000A35ABF4F2C91848D90E001968F73992749
:10051000848FA689B7892C93A089B1898C91837027
:1005200080648C93938D848D981306C00288F38920
:10053000E02D80818F7D80830895EF92FF920F934D
:100540001F93CF93DF93EC0181E0888F9B8D8C8D7F
:1005500098131AC0E889F989808185FF15C09FB773
:10056000F894EE89FF896083E889F9898081837036
:10057000806480839FBF81E090E0DF91CF911F91E5
:100580000F91FF90EF900895F62E0B8D10E00F5F06
:100590001F4F0F731127E02E8C8D8E110CC00FB6DC
:1005A00007FCFACFE889F989808185FFF5CFCE0174
:1005B0000E947B02F1CFEB8DEC0FFD2FF11DE35A72
:1005C000FF4FF0829FB7F8940B8FEA89FB898081F7
:1005D0008062CFCFCF93DF93EC01888D8823B9F071
:1005E000AA89BB89E889F9898C9185FD03C080813E
:1005F00086FD0DC00FB607FCF7CF8C9185FFF2CFBB
:10060000808185FFEDCFCE010E947B02E9CFDF9193
:10061000CF9108950F931F93CF93DF938C01809117
:10062000D1019091D2010E947A079091D6018091D8
:10063000D301981721F184E090E0809FE001819F31
:10064000D00D909FD00D1124D093CD01C093CC013B
:10065000CE010E94DE069093D2018093D1010097D3
:1006600089F0AE0170E060E00E9403081093CB01B6
:100670000093CA01DF91CF911F910F91089583E0FC
:1006800090E0DBCF1092CD011092CC011092CB0103
:100690001092CA01EFCF8F929F92AF92BF920F93A9
:1006A0001F93CF93DF93CDB7DEB7A1970FB6F89422
:1006B000DEBF0FBECDBF19A2423008F44AE08E0162
:1006C0000F5D1F4F842E912CB12CA12CA5019401FC
:1006D0000E94B606E62FB901CA01EA3044F5E05D92
:1006E000D801EE938D01232B242B252B79F790E055
:1006F00080E0109769F0FD0101900020E9F7319743
:10070000AF014A1B5B0BBD018BE291E00E94FD0132
:10071000A1960FB6F894DEBF0FBECDBFDF91CF918B
:100720001F910F91BF90AF909F908F900895E95CBB
:10073000D7CF1F920F920FB60F9211242F933F9392
:100740008F939F93AF93BF93809123019091240146
:10075000A0912501B09126013091220123E0230FC1
:100760002D3758F50196A11DB11D209322018093CC
:10077000230190932401A0932501B0932601809139
:10078000270190912801A0912901B0912A01019699
:10079000A11DB11D8093270190932801A0932901E9
:1007A000B0932A01BF91AF919F918F913F912F916B
:1007B0000F900FBE0F901F90189526E8230F0296FA
:1007C000A11DB11DD2CF1F920F920FB60F9211240F
:1007D0002F933F934F935F936F937F938F939F9349
:1007E000AF93BF93EF93FF93E0910201F091030168
:1007F0000995FF91EF91BF91AF919F918F917F915B
:100800006F915F914F913F912F910F900FBE0F907D
:100810001F9018951F920F920FB60F9211242F93CD
:100820003F934F935F936F937F938F939F93AF9378
:10083000BF93EF93FF93E0910001F09101010995BF
:10084000FF91EF91BF91AF919F918F917F916F91A8
:100850005F914F913F912F910F900FBE0F901F907E
:1008600018951F920F920FB60F9211242F933F935A
:100870004F935F936F937F938F939F93AF93BF93A8
:10088000EF93FF938BE291E00E947B02FF91EF9147
:10089000BF91AF919F918F917F916F915F914F9198
:1008A0003F912F910F900FBE0F901F9018951F92A0
:1008B0000F920FB60F9211242F938F939F93EF9364
:1008C000FF93E0913B01F0913C018081E091410177
:1008D000F091420182FD1BC09081809144018F5FA5
:1008E0008F7320914501821741F0E0914401F0E0BF
:1008F000E55DFE4F958F80934401FF91EF919F91AD
:100900008F912F910F900FBE0F901F90189580819F
:10091000F4CF10922E0110922D0188EE93E0A0E00A
:10092000B0E080932F0190933001A0933101B093F8
:1009300032018EE091E090932C0180932B0185ECA5
:1009400090E0909338018093370184EC90E090938D
:100950003A018093390180EC90E090933C018093C0
:100960003B0181EC90E090933E0180933D0182EC4D
:1009700090E09093400180933F0186EC90E090934B
:10098000420180934101109244011092450110925E
:100990004601109247011092C9011092D0011092A5
:1009A000D2011092D1011092D7011092D801109269
:1009B000D9011092DA0183E08093D60181E080931F
:1009C000D3011092D40192E09093D5018093C80195
:1009D00084EF91E00E940A038091C901882349F0C5
:1009E0008091CE019091CF0197FD03C060E00E94FD
:1009F000D00086E090E09093CF018093CE0180916B
:100A0000C901882339F061E086E00E94D00086E0C9
:100A10000E948800EAEAF0E0E491F0E0EE0FFF1FA8
:100A2000E656FF4F859194919093DC018093DB0112
:100A3000ECE8F0E0E491E093DD010895789484B56A
:100A4000826084BD84B5816084BD85B5826085BDCA
:100A500085B5816085BD80916E00816080936E0058
:100A6000109281008091810082608093810080914A
:100A700081008160809381008091800081608093FB
:100A800080008091B10084608093B1008091B000BB
:100A900081608093B00080917A00846080937A00B6
:100AA00080917A00826080937A0080917A008160E0
:100AB00080937A0080917A00806880937A00109207
:100AC000C1008091CE019091CF0197FD07C061E0F8
:100AD0000E94D0008091CE010E94880081E0809326
:100AE000C9018091D1019091D201892B11F00E940E
:100AF00026012091D001233329F1C091D101D09159
:100B0000D201215070E060E031F0622F70E08FEF91
:100B100092E30E94A206FE012091CC013091CD010A
:100B2000CF018C1B9D0B8217930748F42081269FD1
:100B3000C001279F900D112490833196EDCF83E360
:100B40008093D00160E083E00E94D00082EF91E0CA
:100B50009093030180930201809169008C608093DF
:100B60006900E99AE0913B01F0913C0182E08083C9
:100B7000E0913701F09138011082E0913901F09154
:100B80003A018FEC808310924301E0913F01F09194
:100B9000400186E08083E0913D01F0913E0180813B
:100BA00080618083E0913D01F0913E018081886009
:100BB0008083E0913D01F0913E01808180688083D7
:100BC000E0913D01F0913E0180818F7D8083D0E0F6
:100BD000C0E079E1F72E80912001909121010397E7
:100BE00034F18E01015011090F3F100709F094C034
:100BF0006DE28BE291E00E949D024AE061E070E0CC
:100C000080E090E00E944B0342E050E06CE171E034
:100C10008BE291E00E94FD01C0E0D0E02097F1F36B
:100C20000E9467028823D1F30E940000F7CFCE0113
:100C30000E940A038091CA019091CB01C817D9077D
:100C400060F58091D00149E1882321F08F9DC0019A
:100C50001124492FE091D6018091D1019091D201C8
:100C60002091D301E2134CC09E01220F331F2C0FA1
:100C70003D1F820F931FE091D301E80FF92FF11D63
:100C80004083E091D401E80FF92FF11D10822091EB
:100C9000D501820F911DFC0110828091D1019091AC
:100CA000D201892B11F00E9426010E9401012B0123
:100CB0003C018AE0882E912CA12CB12C0E940101CC
:100CC0006419750986099709683E73408105910585
:100CD000A8F3F1E08F1A9108A108B10828EE420E9E
:100CE00023E0521E611C711C81149104A104B10403
:100CF00029F72196CD32F1E0DF0709F06CCF74CFF0
:100D00009E01220F331F220F331F820F931FE80F04
:100D1000F92FF11D1082AFCFB801110F880B990B7D
:100D20004AE070CF8091D1019091D2010E947A0760
:100D30008091CE019091CF0197FD03C060E00C94AB
:100D4000D0000895AA1BBB1B51E107C0AA1FBB1FFF
:100D5000A617B70710F0A61BB70B881F991F5A9547
:100D6000A9F780959095BC01CD010895A1E21A2EB6
:100D7000AA1BBB1BFD010DC0AA1FBB1FEE1FFF1F3F
:100D8000A217B307E407F50720F0A21BB30BE40B8F
:100D9000F50B661F771F881F991F1A9469F76095D6
:100DA0007095809590959B01AC01BD01CF01089590
:100DB000EE0FFF1F0590F491E02D09940F931F9300
:100DC000CF93DF938230910510F482E090E0E091C0
:100DD000E001F091E10130E020E0B0E0A0E03097E8
:100DE00099F42115310509F44AC0281B390B243028
:100DF0003105D8F58A819B816115710589F1FB0167
:100E000093838283FE0111C040815181028113814D
:100E100048175907E0F04817590799F4109761F0FF
:100E200012960C93129713961C933296CF01DF9172
:100E3000CF911F910F9108950093E0011093E1016C
:100E4000F4CF2115310551F04217530738F0A901AD
:100E5000DB019A01BD01DF01F801C1CFEF01F9CF3C
:100E60009093E1018093E001CDCFFE01E20FF31FEB
:100E7000819391932250310939832883D7CF2091D0
:100E8000DE013091DF01232B41F4209106013091E6
:100E900007013093DF012093DE012091040130919E
:100EA00005012115310541F42DB73EB740910801E8
:100EB00050910901241B350BE091DE01F091DF0117
:100EC000E217F307A0F42E1B3F0B2817390778F021
:100ED000AC014E5F5F4F2417350748F04E0F5F1F80
:100EE0005093DF014093DE01819391939FCFF0E017
:100EF000E0E09CCFCF93DF930097E9F0FC013297BD
:100F000013821282A091E001B091E101ED0130E085
:100F100020E01097A1F420813181820F931F20914E
:100F2000DE013091DF012817390709F061C0F09325
:100F3000DF01E093DE01DF91CF910895EA01CE1742
:100F4000DF07E8F54A815B819E0141155105B1F744
:100F5000E901FB83EA8349915991C40FD51FEC172E
:100F6000FD0761F4808191810296840F951FE9014C
:100F700099838883828193819B838A83F0E0E0E078
:100F800012968D919C9113970097B9F52D913C91F4
:100F90001197CD010296820F931F2091DE013091AF
:100FA000DF012817390739F6309751F51092E10122
:100FB0001092E001B093DF01A093DE01BCCFD38398
:100FC000C28340815181840F951FC817D90761F4EE
:100FD0004E5F5F4F88819981480F591F518340832D
:100FE0008A819B81938382832115310509F0B0CFDB
:100FF000F093E101E093E0019ECFFD01DC01C0CF61
:1010000013821282D7CFDC0101C06D934150504052
:10101000E0F7089510E0CDE5D0E004C0FE010E94A5
:0E102000D8062196CE35D107C9F7F894FFCF38
:10102E00FC01FC010000E2018000000000009D02B6
:10103E00FD012A02EA025B0239024D020D0A00008E
:00000001FF
