:020000040000FA
:100000000C945E000C94FD030C94D6030C948600B3
:100010000C9486000C9486000C9486000C94860048
:100020000C9486000C9486000C9486000C94860038
:100030000C9486000C9486000C9486000C94860028
:100040000C948C030C9486000C944A040C942404A5
:100050000C9486000C9486000C9486000C94860008
:100060000C9486000C9486000000000024002700F9
:100070002A0000000008000201000003040700003D
:10008000000000000000010204081020408001026E
:1000900004081020010204081020000000002500C0
:1000A00028002B00040404040404040402020202D5
:1000B00002020303030303037C047D0611241FBE15
:1000C000CFEFD8E0DEBFCDBF11E0A0E0B1E0E6EFBA
:1000D000FFE002C005900D92A032B107D9F721E0F0
:1000E000A0E2B1E001C01D92A13EB207E1F710E02D
:1000F000CDE5D0E004C02197FE010E94C306CC35B7
:10010000D107C9F70E941D050C94EE070C9400005E
:1001100090E0FC01EE58FF4F2491FC01EA57FF4F9D
:100120003491FC01EC55FF4FE491EE23B9F022230A
:1001300039F02330F1F098F4213009F1223019F12F
:10014000F0E0EE0FFF1FE656FF4FA591B4918FB779
:10015000F894EC9130953E233C938FBF089527305F
:10016000A9F02830C9F0243059F7809180008F7DA4
:1001700003C0809180008F7780938000E1CF84B5A9
:100180008F7784BDDDCF84B58F7DFBCF8091B000AC
:100190008F778093B000D4CF8091B0008F7DF9CF5E
:1001A000CF93DF9390E0FC01EA57FF4F24918C55E9
:1001B0009F4FFC0184918823D1F090E0880F991F14
:1001C000FC01E859FF4FA591B491FC01E656FF4FA1
:1001D000C591D49161110EC09FB7F8948C91E22F14
:1001E000E0958E238C932881E223E8839FBFDF91E3
:1001F000CF9108958FB7F894EC91E22BEC938FBFD9
:10020000F6CF3FB7F8948091260190912701A091F5
:100210002801B091290126B5A89B05C02F3F19F0F0
:100220000196A11DB11D3FBFBA2FA92F982F882776
:10023000BC01CD01620F711D811D911D42E0660F51
:10024000771F881F991F4A95D1F708950F931F9321
:10025000CF93DF93CDB7DEB729970FB6F894DEBF03
:100260000FBECDBF0E9401010091D6011091D701B0
:100270002091D8013091D901601771078207930747
:1002800040F46093D6017093D7018093D801909386
:10029000D9010091D6011091D7012091D801309158
:1002A000D901601B710B820B930B6C32714081057D
:1002B0009105C0F2F8948091CB019091CC019A8382
:1002C0008983E091D001F091D101DF011196808105
:1002D00089879091C701E091DA01F091DB0180916B
:1002E000DC01992309F445C09081982B988790816F
:1002F000809589238F838F818C8388E08B835885B9
:100300006F8149853B812C8189819A81508347FD8A
:10031000252F3A952083262F39F0441F00C0000076
:100320006083000000C0F2CF38E04D916083000090
:10033000019761F7F093DB01E093DA0149873B8392
:100340002C839A83898378940E9401016093D6015B
:100350007093D7018093D8019093D90129960FB655
:10036000F894DEBF0FBECDBFDF91CF911F910F91EB
:1003700008959081982B98879081809589238F8309
:100380008F818E8388E08D8358856F8149853D817B
:100390002E8189819A81508347FD252F00C000C09E
:1003A000208300C000C000C000C000C06083000007
:1003B000262F3A9541F0441F000000C000C000C045
:1003C00000C000C0E8CF38E04D9100C0608300C09D
:1003D000019709F7F093DB01E093DA0149873D8348
:1003E0002E83AFCF9091200181E0911180E0809326
:1003F000200108950895AF92BF92CF92DF92EF92BD
:10040000FF920F931F93CF93DF936C017B018B01BE
:10041000040F151FEB015E01AE18BF08C017D1070E
:1004200059F06991D601ED91FC910190F081E02D98
:10043000C6010995892B79F7C501DF91CF911F91ED
:100440000F91FF90EF90DF90CF90BF90AF90089505
:10045000FC01538D448D252F30E0842F90E0821BCA
:10046000930B541710F0CF96089501970895FC014F
:10047000918D828D981761F0A28DAE0FBF2FB11DA7
:100480005D968C91928D9F5F9F73928F90E00895FF
:100490008FEF9FEF0895FC01918D828D981731F0B9
:1004A000828DE80FF11D858D90E008958FEF9FEF0D
:1004B0000895FC01918D228D892F90E0805C9F4FE3
:1004C000821B91098F73992708958AE291E00E9417
:1004D000590221E0892B09F420E0822F089580E061
:1004E00090E0892B29F00E94650281110C94000094
:1004F0000895FC01A48DA80FB92FB11DA35ABF4FB9
:100500002C91848D90E001968F739927848FA68912
:10051000B7892C93A089B1898C91837080648C9366
:10052000938D848D981306C00288F389E02D808115
:100530008F7D80830895EF92FF920F931F93CF9347
:10054000DF93EC0181E0888F9B8D8C8D98131AC00E
:10055000E889F989808185FF15C09FB7F894EE89F5
:10056000FF896083E889F989808183708064808352
:100570009FBF81E090E0DF91CF911F910F91FF909D
:10058000EF900895F62E0B8D10E00F5F1F4F0F7345
:100590001127E02E8C8D8E110CC00FB607FCFACF00
:1005A000E889F989808185FFF5CFCE010E94790223
:1005B000F1CFEB8DEC0FFD2FF11DE35AFF4FF082D1
:1005C0009FB7F8940B8FEA89FB8980818062CFCF37
:1005D000CF93DF93EC01888D8823B9F0AA89BB897A
:1005E000E889F9898C9185FD03C0808186FD0DC065
:1005F0000FB607FCF7CF8C9185FFF2CF808185FF86
:10060000EDCFCE010E947902E9CFDF91CF9108951D
:100610008F929F92AF92BF920F931F93CF93DF93CE
:10062000CDB7DEB7A1970FB6F894DEBF0FBECDBF32
:1006300019A2423008F44AE08E010F5D1F4F842E4C
:10064000912CB12CA12CA50194010E94A106E62FAA
:10065000B901CA01EA3044F5E05DD801EE938D019D
:10066000232B242B252B79F790E080E0109769F05D
:10067000FD0101900020E9F73197AF014A1B5B0BA8
:10068000BD018AE291E00E94FB01A1960FB6F894A9
:10069000DEBF0FBECDBFDF91CF911F910F91BF90F5
:1006A000AF909F908F900895E95CD7CFCF92DF9263
:1006B000EF92FF92CF93DF936C01990FEE08FF0842
:1006C000F7FE23C06DE28AE291E00E949B02EC01FA
:1006D00066277727CB016C197D098E099F094AE0AF
:1006E0000E940803C80FD91F42E050E06CE171E09E
:1006F0008AE291E00E94FB018C0F9D1FDF91CF9158
:10070000FF90EF90DF90CF9008954AE0C701B601C7
:100710000E940803EC01E8CF1F920F920FB60F92D0
:1007200011242F933F938F939F93AF93BF93809107
:10073000220190912301A0912401B09125013091D3
:10074000210123E0230F2D3758F50196A11DB11D7E
:10075000209321018093220190932301A0932401EF
:10076000B09325018091260190912701A091280145
:10077000B09129010196A11DB11D8093260190938E
:100780002701A0932801B0932901BF91AF919F91B8
:100790008F913F912F910F900FBE0F901F90189542
:1007A00026E8230F0296A11DB11DD2CF1F920F92F2
:1007B0000FB60F9211242F933F934F935F936F9334
:1007C0007F938F939F93AF93BF93EF93FF93E091AA
:1007D0000201F09103010995FF91EF91BF91AF9153
:1007E0009F918F917F916F915F914F913F912F9149
:1007F0000F900FBE0F901F9018951F920F920FB67B
:100800000F9211242F933F934F935F936F937F9396
:100810008F939F93AF93BF93EF93FF93E09100016A
:10082000F09101010995FF91EF91BF91AF919F91D7
:100830008F917F916F915F914F913F912F910F9089
:100840000FBE0F901F9018951F920F920FB60F9228
:1008500011242F933F934F935F936F937F938F93C5
:100860009F93AF93BF93EF93FF938AE291E00E942F
:100870007902FF91EF91BF91AF919F918F917F91FD
:100880006F915F914F913F912F910F900FBE0F90FD
:100890001F9018951F920F920FB60F9211242F934D
:1008A0008F939F93EF93FF93E0913A01F0913B0177
:1008B0008081E0914001F091410182FD1BC0908157
:1008C000809143018F5F8F7320914401821741F023
:1008D000E0914301F0E0E65DFE4F958F8093430188
:1008E000FF91EF919F918F912F910F900FBE0F90DD
:1008F0001F9018958081F4CF10922D0110922C0139
:1009000088EE93E0A0E0B0E080932E0190932F0159
:10091000A0933001B09331018EE091E090932B01D0
:1009200080932A0185EC90E0909337018093360103
:1009300084EC90E0909339018093380180EC90E052
:1009400090933B0180933A0181EC90E090933D01BC
:1009500080933C0182EC90E090933F0180933E01B4
:1009600086EC90E090934101809340011092430106
:100970001092440110924501109246011092C80154
:100980001092CF011092D6011092D7011092D80187
:100990001092D90181E08093D5018093D201109209
:1009A000D30192E09093D4018093C7018BE190E052
:1009B0009093CC018093CB010E94C9069093D10102
:1009C0008093D001009781F12BE1FC0111922A95CF
:1009D000E9F789E090E09093CA018093C90186E02D
:1009E00090E09093CE018093CD018091C80188233F
:1009F00039F061E086E00E94D00086E00E94880025
:100A0000EAEAF0E0E491F0E0EE0FFF1FE656FF4F58
:100A1000859194919093DB018093DA01ECE8F0E00A
:100A2000E491E093DC0108951092CC011092CB0187
:100A30001092CA011092C901D2CF789484B5826015
:100A400084BD84B5816084BD85B5826085BD85B572
:100A5000816085BD80916E00816080936E001092F0
:100A6000810080918100826080938100809181006B
:100A700081608093810080918000816080938000FC
:100A80008091B10084608093B1008091B00081605A
:100A90008093B00080917A00846080937A00809186
:100AA0007A00826080937A0080917A0081608093DE
:100AB0007A0080917A00806880937A001092C10059
:100AC0008091CD019091CE0197FD07C061E00E9419
:100AD000D0008091CD010E94880081E08093C80100
:100AE0008091D0019091D101892B11F00E942601B3
:100AF0006091CF01633329F12091D0013091D10170
:100B00006150C9F070E08FEF92E30E948D06F90109
:100B10004091CB015091CC01CF01821B930B8417E4
:100B2000950760F44081469FC001479F900D1124B6
:100B300090833196EDCF70E060E0E9CF83E380935E
:100B4000CF0160E083E00E94D00082EF91E09093BB
:100B5000030180930201809169008C608093690099
:100B6000E99AE0913A01F0913B0182E08083E091C3
:100B70003601F09137011082E0913801F09139018E
:100B80008FEC808310924201E0913E01F0913F0191
:100B900086E08083E0913C01F0913D01808180619D
:100BA0008083E0913C01F0913D01808188608083E9
:100BB000E0913C01F0913D01808180688083E0916B
:100BC0003C01F0913D0180818F7D8083D0E0C0E0C9
:100BD000E6E9BE2EF4E6AF2E8091C9019091CA01DC
:100BE000C817D90788F58091CF0146E954E68823D4
:100BF00041F08A9D90011124532F8B9DC001112437
:100C0000492FE091D5018091D0019091D10120919F
:100C1000D201E21339C09E01220F331F2C0F3D1F5A
:100C2000820F931FE091D201E80FF92FF11D50833D
:100C3000E091D301E80FF92FF11D10822091D4012A
:100C4000820F911DFC0140838091D0019091D101D0
:100C5000892B11F00E94260180912001813001F53D
:100C6000CE010E9456038E010F5F1F4FC8010E94E4
:100C70005603C0E0D0E02097F1F30E94650288237C
:100C8000D1F30E940000F7CF9E01220F331F220FE5
:100C9000331F820F931FE80FF92FF11D1082C2CF6F
:100CA000CE010E9456030E9401012B013C0184E603
:100CB000C82ED12CE12CF12C0E9401016419750978
:100CC00086099709683E734081059105A8F3F1E014
:100CD000CF1AD108E108F10828EE420E23E0521E97
:100CE000611C711CC114D104E104F10429F721969F
:100CF000CA30D10509F070CFB9CF8091D001909161
:100D0000D1010E9465078091CD019091CE0197FDA0
:100D100003C060E00C94D0000895AA1BBB1B51E1F6
:100D200007C0AA1FBB1FA617B70710F0A61BB70B5B
:100D3000881F991F5A95A9F780959095BC01CD0100
:100D40000895A1E21A2EAA1BBB1BFD010DC0AA1F0C
:100D5000BB1FEE1FFF1FA217B307E407F50720F024
:100D6000A21BB30BE40BF50B661F771F881F991F9F
:100D70001A9469F760957095809590959B01AC01E8
:100D8000BD01CF010895EE0FFF1F0590F491E02DF6
:100D900009940F931F93CF93DF938230910510F442
:100DA00082E090E0E091DF01F091E00130E020E0AE
:100DB000B0E0A0E0309799F42115310509F44AC05C
:100DC000281B390B24303105D8F58A819B816115A8
:100DD000710589F1FB0193838283FE0111C040817B
:100DE00051810281138148175907E0F048175907CC
:100DF00099F4109761F012960C93129713961C9326
:100E00003296CF01DF91CF911F910F9108950093FA
:100E1000DF011093E001F4CF2115310551F04217A5
:100E2000530738F0A901DB019A01BD01DF01F80188
:100E3000C1CFEF01F9CF9093E0018093DF01CDCFD7
:100E4000FE01E20FF31F8193919322503109398300
:100E50002883D7CF2091DD013091DE01232B41F48F
:100E600020910601309107013093DE012093DD01CE
:100E700020910401309105012115310541F42DB770
:100E80003EB74091080150910901241B350BE091B8
:100E9000DD01F091DE01E217F307A0F42E1B3F0BFA
:100EA0002817390778F0AC014E5F5F4F24173507DC
:100EB00048F04E0F5F1F5093DE014093DD01819398
:100EC00091939FCFF0E0E0E09CCFCF93DF9300972A
:100ED000E9F0FC01329713821282A091DF01B091F8
:100EE000E001ED0130E020E01097A1F42081318194
:100EF000820F931F2091DD013091DE012817390701
:100F000009F061C0F093DE01E093DD01DF91CF9144
:100F10000895EA01CE17DF07E8F54A815B819E015B
:100F200041155105B1F7E901FB83EA8349915991D4
:100F3000C40FD51FEC17FD0761F4808191810296E3
:100F4000840F951FE90199838883828193819B8314
:100F50008A83F0E0E0E012968D919C9113970097C0
:100F6000B9F52D913C911197CD010296820F931FF7
:100F70002091DD013091DE012817390739F63097CD
:100F800051F51092E0011092DF01B093DE01A093C1
:100F9000DD01BCCFD383C28340815181840F951F73
:100FA000C817D90761F44E5F5F4F88819981480F58
:100FB000591F518340838A819B81938382832115AA
:100FC000310509F0B0CFF093E001E093DF019ECF4F
:100FD000FD01DC01C0CF13821282D7CF10E0CDE536
:100FE000D0E004C0FE010E94C3062196CE35D10791
:100FF000C9F7F894FFCFFA01FA010000E10180007F
:10100000000000009B02FB012802E802590237029F
:061010004B020D0A000076
:107E0000112484B714BE81FFF0D085E080938100F7
:107E100082E08093C00088E18093C10086E0809377
:107E2000C20080E18093C4008EE0C9D0259A86E02C
:107E300020E33CEF91E0309385002093840096BBD3
:107E4000B09BFECF1D9AA8958150A9F7CC24DD24C4
:107E500088248394B5E0AB2EA1E19A2EF3E0BF2EE7
:107E6000A2D0813461F49FD0082FAFD0023811F036
:107E7000013811F484E001C083E08DD089C08234E0
:107E800011F484E103C0853419F485E0A6D080C0E4
:107E9000853579F488D0E82EFF2485D0082F10E0AE
:107EA000102F00270E291F29000F111F8ED06801E7
:107EB0006FC0863521F484E090D080E0DECF843638
:107EC00009F040C070D06FD0082F6DD080E0C81688
:107ED00080E7D80618F4F601B7BEE895C0E0D1E017
:107EE00062D089930C17E1F7F0E0CF16F0E7DF06D8
:107EF00018F0F601B7BEE89568D007B600FCFDCFD4
:107F0000A601A0E0B1E02C9130E011968C91119780
:107F100090E0982F8827822B932B1296FA010C0160
:107F200087BEE89511244E5F5F4FF1E0A038BF0790
:107F300051F7F601A7BEE89507B600FCFDCF97BE46
:107F4000E89526C08437B1F42ED02DD0F82E2BD052
:107F50003CD0F601EF2C8F010F5F1F4F84911BD097
:107F6000EA94F801C1F70894C11CD11CFA94CF0C13
:107F7000D11C0EC0853739F428D08EE10CD085E9AC
:107F80000AD08FE07ACF813511F488E018D01DD067
:107F900080E101D065CF982F8091C00085FFFCCF94
:107FA0009093C60008958091C00087FFFCCF809118
:107FB000C00084FD01C0A8958091C6000895E0E648
:107FC000F0E098E1908380830895EDDF803219F02E
:107FD00088E0F5DFFFCF84E1DECF1F93182FE3DFCA
:107FE0001150E9F7F2DF1F91089580E0E8DFEE27F6
:047FF000FF270994CA
:027FFE00040479
:00000001FF
