:020000040000FA
:100000000C9463000C948B000C948B000C948B006C
:100010000C948B000C948B000C948B000C948B0034
:100020000C948B000C948B000C948B000C948B0024
:100030000C948B000C948B000C948B000C948B0014
:100040000C940C030C948B000C947C030C945603BE
:100050000C948B000C948B000C948B000C948B00F4
:100060000C948B000C948B000000000023002600F1
:10007000290000000000240027002A0000000008DA
:10008000000201000003040700000000000000005F
:10009000010204081020408001020408102001021F
:1000A0000408102000000000250028002B00040494
:1000B0000404040404040202020202020303030310
:1000C0000303AE03F60511241FBECFEFD8E0DEBF59
:1000D000CDBF11E0A0E0B1E0E8EEFEE002C0059087
:1000E0000D92AC31B107D9F721E0ACE1B1E001C02C
:1000F0001D92AC3DB207E1F710E0C2E6D0E004C0CB
:100100002197FE010E943C06C136D107C9F70E9423
:1001100056040C9467070C940000833081F028F497
:10012000813099F08230A9F008958730A9F08830A5
:10013000C9F08430B1F4809180008F7D03C080913C
:1001400080008F7780938000089584B58F7784BD79
:10015000089584B58F7DFBCF8091B0008F77809319
:10016000B00008958091B0008F7DF9CFCF93DF93D9
:10017000282F30E0F901E458FF4F8491F901E0574E
:10018000FF4FD491F901E255FF4FC491CC2391F078
:1001900081110E948D00EC2FF0E0EE0FFF1FEC5557
:1001A000FF4FA591B4918FB7F894EC91D095DE23D1
:1001B000DC938FBFDF91CF910895CF93DF9390E0D1
:1001C000FC01E057FF4F249182559F4FFC01849121
:1001D0008823D1F090E0880F991FFC01EE58FF4F63
:1001E000A591B491FC01EC55FF4FC591D4916111DB
:1001F0000EC09FB7F8948C91E22FE0958E238C93DC
:100200002881E223E8839FBFDF91CF9108958FB7C4
:10021000F894EC91E22BEC938FBFF6CF3FB7F894B4
:100220008091210190912201A0912301B09124019C
:1002300026B5A89B05C02F3F19F00196A11DB11D41
:100240003FBFBA2FA92F982F8827BC01CD01620F7D
:10025000711D811D911D42E0660F771F881F991F38
:100260004A95D1F708950F931F93CF93DF93CDB79E
:10027000DEB729970FB6F894DEBF0FBECDBF0E9440
:100280000E010091D1011091D2012091D301309142
:10029000D401601771078207930740F46093D1017E
:1002A0007093D2018093D3019093D4010091D10136
:1002B0001091D2012091D3013091D401601B710BB8
:1002C000820B930B6C32714081059105C0F2F8945A
:1002D0008091C6019091C7019A838983E091CB01F7
:1002E000F091CC01DF011196808189879091C20144
:1002F000E091D501F091D6018091D701992309F4BD
:1003000045C09081982B98879081809589238F8311
:100310008F818C8388E08B8358856F8149853B81F1
:100320002C8189819A81508347FD252F3A9520831E
:10033000262F39F0441F00C000006083000000C079
:10034000F2CF38E04D9160830000019761F7F093A0
:10035000D601E093D50149873B832C839A83898317
:1003600078940E940E016093D1017093D201809322
:10037000D3019093D40129960FB6F894DEBF0FBE37
:10038000CDBFDF91CF911F910F9108959081982B50
:1003900098879081809589238F838F818E8388E0D1
:1003A0008D8358856F8149853D812E8189819A8110
:1003B000508347FD252F00C000C0208300C000C02F
:1003C00000C000C000C060830000262F3A9541F0B5
:1003D000441F000000C000C000C000C000C0E8CF43
:1003E00038E04D9100C0608300C0019709F7F09399
:1003F000D601E093D50149873D832E83AFCFAF92DD
:10040000BF92CF92DF92EF92FF920F931F93CF9301
:10041000DF936C017B018B01040F151FEB015E0163
:10042000AE18BF08C017D10759F06991D601ED91F8
:10043000FC910190F081E02DC6010995892B79F797
:10044000C501DF91CF911F910F91FF90EF90DF9049
:10045000CF90BF90AF900895FC01538D448D252F10
:1004600030E0842F90E0821B930B541710F0CF964E
:10047000089501970895FC01918D828D981761F080
:10048000A28DAE0FBF2FB11D5D968C91928D9F5F97
:100490009F73928F90E008958FEF9FEF0895FC0176
:1004A000918D828D981731F0828DE80FF11D858D29
:1004B00090E008958FEF9FEF0895FC01918D228DBC
:1004C000892F90E0805C9F4F821B91098F73992741
:1004D000089585E291E00E945D0221E0892B09F4F4
:1004E00020E0822F089580E090E0892B29F00E947F
:1004F000690281110C9400000895FC01A48DA80FDD
:10050000B92FB11DA35ABF4F2C91848D90E0019655
:100510008F739927848FA689B7892C93A089B18975
:100520008C91837080648C93938D848D981306C016
:100530000288F389E02D80818F7D80830895EF927A
:10054000FF920F931F93CF93DF93EC0181E0888F8D
:100550009B8D8C8D98131AC0E889F989808185FF5D
:1005600015C09FB7F894EE89FF896083E889F989FF
:1005700080818370806480839FBF81E090E0DF9101
:10058000CF911F910F91FF90EF900895F62E0B8D54
:1005900010E00F5F1F4F0F731127E02E8C8D8E110F
:1005A0000CC00FB607FCFACFE889F989808185FF76
:1005B000F5CFCE010E947D02F1CFEB8DEC0FFD2F28
:1005C000F11DE35AFF4FF0829FB7F8940B8FEA8931
:1005D000FB8980818062CFCFCF93DF93EC01888D40
:1005E0008823B9F0AA89BB89E889F9898C9185FDAE
:1005F00003C0808186FD0DC00FB607FCF7CF8C913C
:1006000085FFF2CF808185FFEDCFCE010E947D0274
:10061000E9CFDF91CF9108951F920F920FB60F92FD
:1006200011242F933F938F939F93AF93BF93809108
:100630001D0190911E01A0911F01B09120013091E8
:100640001C0123E0230F2D3758F50196A11DB11D84
:1006500020931C0180931D0190931E01A0931F0104
:10066000B09320018091210190912201A09123015A
:10067000B09124010196A11DB11D80932101909399
:100680002201A0932301B0932401BF91AF919F91C8
:100690008F913F912F910F900FBE0F901F90189543
:1006A00026E8230F0296A11DB11DD2CF1F920F92F3
:1006B0000FB60F9211242F933F934F935F936F9335
:1006C0007F938F939F93AF93BF93EF93FF9385E2B5
:1006D00091E00E947D02FF91EF91BF91AF919F91B8
:1006E0008F917F916F915F914F913F912F910F90DB
:1006F0000FBE0F901F9018951F920F920FB60F927A
:1007000011242F938F939F93EF93FF93E0913501E3
:10071000F09136018081E0913B01F0913C0182FD36
:100720001BC0908180913E018F5F8F7320913F01AC
:10073000821741F0E0913E01F0E0EB5DFE4F958FB6
:1007400080933E01FF91EF919F918F912F910F9098
:100750000FBE0F901F9018958081F4CFCF93DF9339
:10076000109228011092270188EE93E0A0E0B0E0FB
:100770008093290190932A01A0932B01B0932C011F
:100780008AE091E0909326018093250185EC90E02A
:10079000909332018093310184EC90E09093340186
:1007A0008093330180EC90E0909336018093350183
:1007B00081EC90E0909338018093370182EC90E0D7
:1007C00090933A018093390186EC90E090933C013C
:1007D00080933B0110923E0110923F011092400124
:1007E000109241011092C3011092CA011092D101DE
:1007F0001092D2011092D3011092D40181E0809323
:10080000D0018093CD011092CE0192E09093CF0160
:100810008093C201CCEDD5E0D093C701C093C6014F
:100820008CED95E00E9442069093CC018093CB0121
:10083000009799F1FC019E01119221503040E1F79F
:1008400084EF91E09093C5018093C40186E090E02D
:100850009093C9018093C8018091C301882339F026
:1008600061E086E00E94DD0086E00E94B600E4EBD5
:10087000F0E0E491F0E0EE0FFF1FEC55FF4F8591A3
:1008800094919093D6018093D501E6E9F0E0E4914C
:10089000E093D701DF91CF9108951092C701109294
:1008A000C6011092C5011092C401D0CFCF93DF933F
:1008B000CDB7DEB7A1970FB6F894DEBF0FBECDBFA0
:1008C000789484B5826084BD84B5816084BD85B52B
:1008D000826085BD85B5816085BD80916E00816037
:1008E00080936E00109281008091810082608093DD
:1008F00081008091810081608093810080918000DF
:100900008160809380008091B10084608093B10009
:100910008091B00081608093B00080917A00846003
:1009200080937A0080917A00826080937A0080912F
:100930007A00816080937A0080917A008068809349
:100940007A001092C1008091C8019091C90197FD71
:1009500007C061E00E94DD008091C8010E94B600DE
:1009600081E08093C3018091CB019091CC01892BD0
:1009700011F00E9433016091CA01633329F1209183
:10098000CB013091CC016150C9F070E08FEF92E360
:100990000E940606F9014091C6015091C701CF019E
:1009A000821B930B8417950760F44081469FC0011A
:1009B000479F900D112490833196EDCF70E060E059
:1009C000E9CF83E38093CA0160E089E00E94DD0003
:1009D000E0913501F091360182E08083E0913101B0
:1009E000F09132011082E0913301F09134018FECEB
:1009F000808310923D01E0913901F0913A0186E047
:100A00008083E0913701F09138018081806180839B
:100A1000E0913701F0913801808188608083E09116
:100A20003701F0913801808180688083E09137013F
:100A3000F091380180818F7D808306E9E4E62E2ED7
:100A4000FAE04F2E512C612C712C6E0180E2C80E01
:100A5000D11CA0E08A2EA0E09A2EF12CE12C8091EE
:100A6000C4019091C501E816F90688F58091CA0184
:100A700036E924E6882341F0829D90011124232F3A
:100A8000809FC0011124392FE091D0018091CB01CA
:100A90009091CC014091CD01E4136DC0A701440FAA
:100AA000551F4E0D5F1D840F951FE091CD01E80F7E
:100AB000F92FF11D2083E091CE01E80FF92FF11DF0
:100AC00010822091CF01820F911DFC013083809113
:100AD000CB019091CC01892B11F00E943301ECE7FE
:100AE000F0E08491E0E9F0E03490EEEAF0E0149177
:100AF000112309F44CC081110E948D00E12FF0E018
:100B0000EE0FFF1FE859FF4FA591B4918C91382249
:100B1000F1F15701F1E0AF1AB108FFEFAF16BF06D0
:100B200009F03FC06DE285E291E00E949F0219A2A8
:100B300081E388A3F60101900020E9F73197AF0126
:100B40004C195D09B60185E291E00E94FF0142E087
:100B500050E068E171E085E291E00E94FF018114BC
:100B6000910409F47ACF0E946902882309F475CFB1
:100B70000E94000072CFA701440F551F440F551F5C
:100B8000840F951FE80FF92FF11D10828ECF8FEF84
:100B9000E81AF80AE4EFEE16E1E0FE0609F05FCF8E
:100BA000BCCF95010B2C000C440B550B19A27E01F8
:100BB000E1E2EE0EF11CCA01B901A30192010E940B
:100BC0001A06605DF70162937F0121153105410529
:100BD000510589F7309709F4BACF01900020E9F761
:100BE0003197AF014E195F09B701ADCF8091CB01AD
:100BF0009091CC010E94DE068091C8019091C901BC
:100C000097FD03C060E00C94DD000895AA1BBB1B98
:100C100051E107C0AA1FBB1FA617B70710F0A61BFC
:100C2000B70B881F991F5A95A9F780959095BC011D
:100C3000CD010895A1E21A2EAA1BBB1BFD010DC018
:100C4000AA1FBB1FEE1FFF1FA217B307E407F5077C
:100C500020F0A21BB30BE40BF50B661F771F881F58
:100C6000991F1A9469F760957095809590959B01EE
:100C7000AC01BD01CF010895EE0FFF1F0590F49167
:100C8000E02D09940F931F93CF93DF93823091054A
:100C900010F482E090E0E091DA01F091DB0130E0C5
:100CA00020E0B0E0A0E0309799F42115310509F477
:100CB0004AC0281B390B24303105D8F58A819B8125
:100CC0006115710589F1FB0193838283FE0111C0D7
:100CD000408151810281138148175907E0F048177C
:100CE000590799F4109761F012960C931297139686
:100CF0001C933296CF01DF91CF911F910F910895F0
:100D00000093DA011093DB01F4CF2115310551F086
:100D10004217530738F0A901DB019A01BD01DF0139
:100D2000F801C1CFEF01F9CF9093DB018093DA0195
:100D3000CDCFFE01E20FF31F819391932250310931
:100D400039832883D7CF2091D8013091D901232B23
:100D500041F420910201309103013093D901209395
:100D6000D80120910001309101012115310541F494
:100D70002DB73EB74091040150910501241B350B5E
:100D8000E091D801F091D901E217F307A0F42E1BEE
:100D90003F0B2817390778F0AC014E5F5F4F2417DF
:100DA000350748F04E0F5F1F5093D9014093D8018B
:100DB000819391939FCFF0E0E0E09CCFCF93DF93BE
:100DC0000097E9F0FC01329713821282A091DA01B8
:100DD000B091DB01ED0130E020E01097A1F420811B
:100DE0003181820F931F2091D8013091D9012817AA
:100DF000390709F061C0F093D901E093D801DF9180
:100E0000CF910895EA01CE17DF07E8F54A815B81AB
:100E10009E0141155105B1F7E901FB83EA83499130
:100E20005991C40FD51FEC17FD0761F480819181A2
:100E30000296840F951FE9019983888382819381AB
:100E40009B838A83F0E0E0E012968D919C9113974A
:100E50000097B9F52D913C911197CD010296820F23
:100E6000931F2091D8013091D9012817390739F6FD
:100E7000309751F51092DB011092DA01B093D9014D
:100E8000A093D801BCCFD383C28340815181840F0A
:100E9000951FC817D90761F44E5F5F4F888199810C
:100EA000480F591F518340838A819B81938382839A
:100EB0002115310509F0B0CFF093DB01E093DA01A1
:100EC0009ECFFD01DC01C0CF13821282D7CF10E08C
:100ED000C2E6D0E004C0FE010E943C062196C33663
:100EE000D107C9F7F894FFCF0000DC0180000000B3
:100EF00000009F02FF012C02EC025D023B024F0248
:040F00000D0A0000D6
:107E0000112484B714BE81FFF0D085E080938100F7
:107E100082E08093C00088E18093C10086E0809377
:107E2000C20080E18093C4008EE0C9D0259A86E02C
:107E300020E33CEF91E0309385002093840096BBD3
:107E4000B09BFECF1D9AA8958150A9F7CC24DD24C4
:107E500088248394B5E0AB2EA1E19A2EF3E0BF2EE7
:107E6000A2D0813461F49FD0082FAFD0023811F036
:107E7000013811F484E001C083E08DD089C08234E0
:107E800011F484E103C0853419F485E0A6D080C0E4
:107E9000853579F488D0E82EFF2485D0082F10E0AE
:107EA000102F00270E291F29000F111F8ED06801E7
:107EB0006FC0863521F484E090D080E0DECF843638
:107EC00009F040C070D06FD0082F6DD080E0C81688
:107ED00080E7D80618F4F601B7BEE895C0E0D1E017
:107EE00062D089930C17E1F7F0E0CF16F0E7DF06D8
:107EF00018F0F601B7BEE89568D007B600FCFDCFD4
:107F0000A601A0E0B1E02C9130E011968C91119780
:107F100090E0982F8827822B932B1296FA010C0160
:107F200087BEE89511244E5F5F4FF1E0A038BF0790
:107F300051F7F601A7BEE89507B600FCFDCF97BE46
:107F4000E89526C08437B1F42ED02DD0F82E2BD052
:107F50003CD0F601EF2C8F010F5F1F4F84911BD097
:107F6000EA94F801C1F70894C11CD11CFA94CF0C13
:107F7000D11C0EC0853739F428D08EE10CD085E9AC
:107F80000AD08FE07ACF813511F488E018D01DD067
:107F900080E101D065CF982F8091C00085FFFCCF94
:107FA0009093C60008958091C00087FFFCCF809118
:107FB000C00084FD01C0A8958091C6000895E0E648
:107FC000F0E098E1908380830895EDDF803219F02E
:107FD00088E0F5DFFFCF84E1DECF1F93182FE3DFCA
:107FE0001150E9F7F2DF1F91089580E0E8DFEE27F6
:047FF000FF270994CA
:027FFE00040479
:00000001FF
